{
  "contractName": "Election",
  "abi": [
    {
      "inputs": [
        {
          "internalType": "string",
          "name": "_title",
          "type": "string"
        },
        {
          "internalType": "uint256",
          "name": "_numCandidates",
          "type": "uint256"
        },
        {
          "internalType": "uint256",
          "name": "_duration",
          "type": "uint256"
        },
        {
          "internalType": "string",
          "name": "_password",
          "type": "string"
        }
      ],
      "payable": false,
      "stateMutability": "nonpayable",
      "type": "constructor"
    },
    {
      "constant": true,
      "inputs": [],
      "name": "actualCandidates",
      "outputs": [
        {
          "internalType": "uint256",
          "name": "",
          "type": "uint256"
        }
      ],
      "payable": false,
      "stateMutability": "view",
      "type": "function"
    },
    {
      "constant": true,
      "inputs": [
        {
          "internalType": "uint256",
          "name": "",
          "type": "uint256"
        }
      ],
      "name": "candidates",
      "outputs": [
        {
          "internalType": "uint256",
          "name": "id",
          "type": "uint256"
        },
        {
          "internalType": "string",
          "name": "name",
          "type": "string"
        },
        {
          "internalType": "uint256",
          "name": "voteCount",
          "type": "uint256"
        }
      ],
      "payable": false,
      "stateMutability": "view",
      "type": "function"
    },
    {
      "constant": true,
      "inputs": [],
      "name": "createdTime",
      "outputs": [
        {
          "internalType": "uint256",
          "name": "",
          "type": "uint256"
        }
      ],
      "payable": false,
      "stateMutability": "view",
      "type": "function"
    },
    {
      "constant": true,
      "inputs": [],
      "name": "duration",
      "outputs": [
        {
          "internalType": "uint256",
          "name": "",
          "type": "uint256"
        }
      ],
      "payable": false,
      "stateMutability": "view",
      "type": "function"
    },
    {
      "constant": true,
      "inputs": [],
      "name": "numCandidates",
      "outputs": [
        {
          "internalType": "uint256",
          "name": "",
          "type": "uint256"
        }
      ],
      "payable": false,
      "stateMutability": "view",
      "type": "function"
    },
    {
      "constant": true,
      "inputs": [],
      "name": "owner",
      "outputs": [
        {
          "internalType": "address",
          "name": "",
          "type": "address"
        }
      ],
      "payable": false,
      "stateMutability": "view",
      "type": "function"
    },
    {
      "constant": true,
      "inputs": [],
      "name": "title",
      "outputs": [
        {
          "internalType": "string",
          "name": "",
          "type": "string"
        }
      ],
      "payable": false,
      "stateMutability": "view",
      "type": "function"
    },
    {
      "constant": true,
      "inputs": [],
      "name": "totalVoters",
      "outputs": [
        {
          "internalType": "uint256",
          "name": "",
          "type": "uint256"
        }
      ],
      "payable": false,
      "stateMutability": "view",
      "type": "function"
    },
    {
      "constant": true,
      "inputs": [
        {
          "internalType": "address",
          "name": "",
          "type": "address"
        }
      ],
      "name": "voters",
      "outputs": [
        {
          "internalType": "bool",
          "name": "",
          "type": "bool"
        }
      ],
      "payable": false,
      "stateMutability": "view",
      "type": "function"
    },
    {
      "constant": false,
      "inputs": [
        {
          "internalType": "string",
          "name": "_name",
          "type": "string"
        },
        {
          "internalType": "string",
          "name": "_password",
          "type": "string"
        }
      ],
      "name": "addCandidate",
      "outputs": [],
      "payable": false,
      "stateMutability": "nonpayable",
      "type": "function"
    },
    {
      "constant": false,
      "inputs": [
        {
          "internalType": "uint256",
          "name": "_candidateId",
          "type": "uint256"
        },
        {
          "internalType": "string",
          "name": "_password",
          "type": "string"
        }
      ],
      "name": "vote",
      "outputs": [],
      "payable": false,
      "stateMutability": "nonpayable",
      "type": "function"
    },
    {
      "constant": true,
      "inputs": [
        {
          "internalType": "string",
          "name": "_password",
          "type": "string"
        }
      ],
      "name": "passwordMatch",
      "outputs": [
        {
          "internalType": "bool",
          "name": "",
          "type": "bool"
        }
      ],
      "payable": false,
      "stateMutability": "view",
      "type": "function"
    }
  ],
  "bytecode": "0x60806040523480156200001157600080fd5b506040516200116838038062001168833981810160405260808110156200003757600080fd5b81019080805160405193929190846401000000008211156200005857600080fd5b838201915060208201858111156200006f57600080fd5b82518660018202830111640100000000821117156200008d57600080fd5b8083526020830192505050908051906020019080838360005b83811015620000c3578082015181840152602081019050620000a6565b50505050905090810190601f168015620000f15780820380516001836020036101000a031916815260200191505b506040526020018051906020019092919080519060200190929190805160405193929190846401000000008211156200012957600080fd5b838201915060208201858111156200014057600080fd5b82518660018202830111640100000000821117156200015e57600080fd5b8083526020830192505050908051906020019080838360005b838110156200019457808201518184015260208101905062000177565b50505050905090810190601f168015620001c25780820380516001836020036101000a031916815260200191505b506040525050508360009080519060200190620001e19291906200027e565b5082600281905550600060038190555032600660006101000a81548173ffffffffffffffffffffffffffffffffffffffff021916908373ffffffffffffffffffffffffffffffffffffffff16021790555042600781905550816008819055506000600960006101000a81548160ff02191690831515021790555080600a9080519060200190620002739291906200027e565b50505050506200032d565b828054600181600116156101000203166002900490600052602060002090601f016020900481019282601f10620002c157805160ff1916838001178555620002f2565b82800160010185558215620002f2579182015b82811115620002f1578251825591602001919060010190620002d4565b5b50905062000301919062000305565b5090565b6200032a91905b80821115620003265760008160009055506001016200030c565b5090565b90565b610e2b806200033d6000396000f3fe608060405234801561001057600080fd5b50600436106100b45760003560e01c80635216509a116100715780635216509a146104f95780635f5300ff146105175780637d27f8b0146105355780638da5cb5b14610553578063a3ec138d1461059d578063b2f4bdb0146105f9576100b4565b80630fb5a6b4146100b957806324108475146100d757806326541b561461019c5780633477ee2e146102ee5780633bb516e3146103a35780634a79d50c14610476575b600080fd5b6100c1610617565b6040518082815260200191505060405180910390f35b61019a600480360360408110156100ed57600080fd5b81019080803590602001909291908035906020019064010000000081111561011457600080fd5b82018360208201111561012657600080fd5b8035906020019184600183028401116401000000008311171561014857600080fd5b91908080601f016020809104026020016040519081016040528093929190818152602001838380828437600081840152601f19601f82011690508083019250505050505050919291929050505061061d565b005b6102ec600480360360408110156101b257600080fd5b81019080803590602001906401000000008111156101cf57600080fd5b8201836020820111156101e157600080fd5b8035906020019184600183028401116401000000008311171561020357600080fd5b91908080601f016020809104026020016040519081016040528093929190818152602001838380828437600081840152601f19601f8201169050808301925050505050505091929192908035906020019064010000000081111561026657600080fd5b82018360208201111561027857600080fd5b8035906020019184600183028401116401000000008311171561029a57600080fd5b91908080601f016020809104026020016040519081016040528093929190818152602001838380828437600081840152601f19601f820116905080830192505050505050509192919290505050610891565b005b61031a6004803603602081101561030457600080fd5b8101908080359060200190929190505050610a91565b6040518084815260200180602001838152602001828103825284818151815260200191508051906020019080838360005b8381101561036657808201518184015260208101905061034b565b50505050905090810190601f1680156103935780820380516001836020036101000a031916815260200191505b5094505050505060405180910390f35b61045c600480360360208110156103b957600080fd5b81019080803590602001906401000000008111156103d657600080fd5b8201836020820111156103e857600080fd5b8035906020019184600183028401116401000000008311171561040a57600080fd5b91908080601f016020809104026020016040519081016040528093929190818152602001838380828437600081840152601f19601f820116905080830192505050505050509192919290505050610b53565b604051808215151515815260200191505060405180910390f35b61047e610c55565b6040518080602001828103825283818151815260200191508051906020019080838360005b838110156104be5780820151818401526020810190506104a3565b50505050905090810190601f1680156104eb5780820380516001836020036101000a031916815260200191505b509250505060405180910390f35b610501610cf3565b6040518082815260200191505060405180910390f35b61051f610cf9565b6040518082815260200191505060405180910390f35b61053d610cff565b6040518082815260200191505060405180910390f35b61055b610d05565b604051808273ffffffffffffffffffffffffffffffffffffffff1673ffffffffffffffffffffffffffffffffffffffff16815260200191505060405180910390f35b6105df600480360360208110156105b357600080fd5b81019080803573ffffffffffffffffffffffffffffffffffffffff169060200190929190505050610d2b565b604051808215151515815260200191505060405180910390f35b610601610d4b565b6040518082815260200191505060405180910390f35b60085481565b6000816040516020018082805190602001908083835b602083106106565780518252602082019150602081019050602083039250610633565b6001836020036101000a0380198251168184511680821785525050505050509050019150506040516020818303038152906040528051906020012090506000600a60405160200180828054600181600116156101000203166002900480156106f55780601f106106d35761010080835404028352918201916106f5565b820191906000526020600020905b8154815290600101906020018083116106e1575b505091505060405160208183030381529060405280519060200120905080821461071e57600080fd5b600960009054906101000a900460ff161561073857600080fd5b6002546003541461074857600080fd5b600460003373ffffffffffffffffffffffffffffffffffffffff1673ffffffffffffffffffffffffffffffffffffffff16815260200190815260200160002060009054906101000a900460ff161561079f57600080fd5b600084101580156107b1575060035484105b6107ba57600080fd5b60016000858152602001908152602001600020600201600081548092919060010191905055506001600460003373ffffffffffffffffffffffffffffffffffffffff1673ffffffffffffffffffffffffffffffffffffffff16815260200190815260200160002060006101000a81548160ff0219169083151502179055506000600554141561084f5742600781905550610879565b600854600754014210610878576001600960006101000a81548160ff0219169083151502179055505b5b60056000815480929190600101919050555050505050565b6000816040516020018082805190602001908083835b602083106108ca57805182526020820191506020810190506020830392506108a7565b6001836020036101000a0380198251168184511680821785525050505050509050019150506040516020818303038152906040528051906020012090506000600a60405160200180828054600181600116156101000203166002900480156109695780601f10610947576101008083540402835291820191610969565b820191906000526020600020905b815481529060010190602001808311610955575b505091505060405160208183030381529060405280519060200120905080821461099257600080fd5b600254600354106109a257600080fd5b600660009054906101000a900473ffffffffffffffffffffffffffffffffffffffff1673ffffffffffffffffffffffffffffffffffffffff163273ffffffffffffffffffffffffffffffffffffffff16146109fc57600080fd5b600960009054906101000a900460ff1615610a1657600080fd5b6040518060600160405280600354815260200185815260200160008152506001600060036000815480929190600101919050558152602001908152602001600020600082015181600001556020820151816001019080519060200190610a7d929190610d51565b506040820151816002015590505050505050565b6001602052806000526040600020600091509050806000015490806001018054600181600116156101000203166002900480601f016020809104026020016040519081016040528092919081815260200182805460018160011615610100020316600290048015610b435780601f10610b1857610100808354040283529160200191610b43565b820191906000526020600020905b815481529060010190602001808311610b2657829003601f168201915b5050505050908060020154905083565b600080826040516020018082805190602001908083835b60208310610b8d5780518252602082019150602081019050602083039250610b6a565b6001836020036101000a0380198251168184511680821785525050505050509050019150506040516020818303038152906040528051906020012090506000600a6040516020018082805460018160011615610100020316600290048015610c2c5780601f10610c0a576101008083540402835291820191610c2c565b820191906000526020600020905b815481529060010190602001808311610c18575b505091505060405160208183030381529060405280519060200120905080821492505050919050565b60008054600181600116156101000203166002900480601f016020809104026020016040519081016040528092919081815260200182805460018160011615610100020316600290048015610ceb5780601f10610cc057610100808354040283529160200191610ceb565b820191906000526020600020905b815481529060010190602001808311610cce57829003601f168201915b505050505081565b60025481565b60055481565b60035481565b600660009054906101000a900473ffffffffffffffffffffffffffffffffffffffff1681565b60046020528060005260406000206000915054906101000a900460ff1681565b60075481565b828054600181600116156101000203166002900490600052602060002090601f016020900481019282601f10610d9257805160ff1916838001178555610dc0565b82800160010185558215610dc0579182015b82811115610dbf578251825591602001919060010190610da4565b5b509050610dcd9190610dd1565b5090565b610df391905b80821115610def576000816000905550600101610dd7565b5090565b9056fea265627a7a723158201bcbb3da0b6bd5cc466623ff98d1ce7c1dc5eb81676f976bad05cdfbd7974a5064736f6c63430005100032",
  "source": "// SPDX-License-Identifier: MIT\npragma solidity >=0.4.22 <0.9.0;\n\n// pragma experimental ABIEncoderV2;\n\ncontract Election {\n    struct Candidate {\n        uint256 id;\n        string name;\n        uint256 voteCount;\n    }\n\n    string public title;\n    mapping(uint256 => Candidate) public candidates;\n    uint256 public numCandidates;\n    uint256 public actualCandidates;\n    mapping(address => bool) public voters;\n    uint256 public totalVoters;\n    address public owner;\n    uint256 public createdTime;\n    uint256 public duration;\n    bool voteFinished;\n    string private password;\n\n    constructor(\n        string memory _title,\n        uint256 _numCandidates,\n        uint256 _duration,\n        string memory _password\n    ) public {\n        title = _title;\n        numCandidates = _numCandidates;\n        actualCandidates = 0;\n        owner = tx.origin;\n        createdTime = block.timestamp;\n        duration = _duration;\n        voteFinished = false;\n        password = _password;\n    }\n\n    function addCandidate(string memory _name, string memory _password) public {\n        bytes32 str1 = keccak256(abi.encodePacked(_password));\n        bytes32 str2 = keccak256(abi.encodePacked(password));\n        require(str1 == str2);\n        require(actualCandidates < numCandidates);\n        require(tx.origin == owner);\n        require(!voteFinished);\n        candidates[actualCandidates++] = Candidate(actualCandidates, _name, 0);\n    }\n\n    function vote(uint256 _candidateId, string memory _password) public {\n        bytes32 str1 = keccak256(abi.encodePacked(_password));\n        bytes32 str2 = keccak256(abi.encodePacked(password));\n        require(str1 == str2);\n        // require that election is not expred\n        require(!voteFinished);\n\n        // require that all candidates are specified\n        require(actualCandidates == numCandidates);\n\n        // require that voter hasn't voted yet\n        require(!voters[msg.sender]);\n\n        // require a valid candidate\n        require(_candidateId >= 0 && _candidateId < actualCandidates);\n\n        // update candidate vote Count\n        candidates[_candidateId].voteCount++;\n\n        // record that voter has voted\n        voters[msg.sender] = true;\n\n        if (totalVoters == 0) {\n            createdTime = block.timestamp;\n        } else if (block.timestamp >= createdTime + duration) {\n            voteFinished = true;\n        }\n\n        // increment number of total voters\n        totalVoters++;\n    }\n\n    function passwordMatch(string memory _password) public view returns (bool) {\n        bytes32 str1 = keccak256(abi.encodePacked(_password));\n        bytes32 str2 = keccak256(abi.encodePacked(password));\n        return str1 == str2;\n    }\n}\n",
  "sourcePath": "/Users/gulshan/Desktop/UIB/TFG/contracts/Election.sol",
  "compiler": {
    "name": "solc",
    "version": "0.5.16+commit.9c3226ce.Emscripten.clang"
  },
  "schemaVersion": "3.4.4",
  "updatedAt": "2022-04-23T14:39:36.100Z",
  "devdoc": {
    "methods": {}
  },
  "userdoc": {
    "methods": {}
  }
}