{
  "contractName": "Election",
  "abi": [
    {
      "inputs": [
        {
          "internalType": "string",
          "name": "_title",
          "type": "string"
        },
        {
          "internalType": "uint256",
          "name": "_numCandidates",
          "type": "uint256"
        }
      ],
      "payable": false,
      "stateMutability": "nonpayable",
      "type": "constructor"
    },
    {
      "constant": true,
      "inputs": [],
      "name": "actualCandidates",
      "outputs": [
        {
          "internalType": "uint256",
          "name": "",
          "type": "uint256"
        }
      ],
      "payable": false,
      "stateMutability": "view",
      "type": "function"
    },
    {
      "constant": true,
      "inputs": [
        {
          "internalType": "uint256",
          "name": "",
          "type": "uint256"
        }
      ],
      "name": "candidates",
      "outputs": [
        {
          "internalType": "uint256",
          "name": "id",
          "type": "uint256"
        },
        {
          "internalType": "string",
          "name": "name",
          "type": "string"
        },
        {
          "internalType": "uint256",
          "name": "voteCount",
          "type": "uint256"
        }
      ],
      "payable": false,
      "stateMutability": "view",
      "type": "function"
    },
    {
      "constant": true,
      "inputs": [],
      "name": "numCandidates",
      "outputs": [
        {
          "internalType": "uint256",
          "name": "",
          "type": "uint256"
        }
      ],
      "payable": false,
      "stateMutability": "view",
      "type": "function"
    },
    {
      "constant": true,
      "inputs": [],
      "name": "owner",
      "outputs": [
        {
          "internalType": "address",
          "name": "",
          "type": "address"
        }
      ],
      "payable": false,
      "stateMutability": "view",
      "type": "function"
    },
    {
      "constant": true,
      "inputs": [],
      "name": "title",
      "outputs": [
        {
          "internalType": "string",
          "name": "",
          "type": "string"
        }
      ],
      "payable": false,
      "stateMutability": "view",
      "type": "function"
    },
    {
      "constant": true,
      "inputs": [],
      "name": "totalVoters",
      "outputs": [
        {
          "internalType": "uint256",
          "name": "",
          "type": "uint256"
        }
      ],
      "payable": false,
      "stateMutability": "view",
      "type": "function"
    },
    {
      "constant": true,
      "inputs": [
        {
          "internalType": "address",
          "name": "",
          "type": "address"
        }
      ],
      "name": "voters",
      "outputs": [
        {
          "internalType": "bool",
          "name": "",
          "type": "bool"
        }
      ],
      "payable": false,
      "stateMutability": "view",
      "type": "function"
    },
    {
      "constant": false,
      "inputs": [
        {
          "internalType": "string",
          "name": "_name",
          "type": "string"
        }
      ],
      "name": "addCandidate",
      "outputs": [],
      "payable": false,
      "stateMutability": "nonpayable",
      "type": "function"
    },
    {
      "constant": false,
      "inputs": [
        {
          "internalType": "uint256",
          "name": "_candidateId",
          "type": "uint256"
        }
      ],
      "name": "vote",
      "outputs": [],
      "payable": false,
      "stateMutability": "nonpayable",
      "type": "function"
    }
  ],
  "bytecode": "0x608060405234801561001057600080fd5b50604051610a5f380380610a5f8339818101604052604081101561003357600080fd5b810190808051604051939291908464010000000082111561005357600080fd5b8382019150602082018581111561006957600080fd5b825186600182028301116401000000008211171561008657600080fd5b8083526020830192505050908051906020019080838360005b838110156100ba57808201518184015260208101905061009f565b50505050905090810190601f1680156100e75780820380516001836020036101000a031916815260200191505b50604052602001805190602001909291905050508160009080519060200190610111929190610169565b5080600281905550600060038190555032600660006101000a81548173ffffffffffffffffffffffffffffffffffffffff021916908373ffffffffffffffffffffffffffffffffffffffff160217905550505061020e565b828054600181600116156101000203166002900490600052602060002090601f016020900481019282601f106101aa57805160ff19168380011785556101d8565b828001600101855582156101d8579182015b828111156101d75782518255916020019190600101906101bc565b5b5090506101e591906101e9565b5090565b61020b91905b808211156102075760008160009055506001016101ef565b5090565b90565b6108428061021d6000396000f3fe608060405234801561001057600080fd5b50600436106100935760003560e01c80635216509a116100665780635216509a146102b95780635f5300ff146102d75780637d27f8b0146102f55780638da5cb5b14610313578063a3ec138d1461035d57610093565b80630121b93f146100985780633477ee2e146100c6578063462e91ec1461017b5780634a79d50c14610236575b600080fd5b6100c4600480360360208110156100ae57600080fd5b81019080803590602001909291905050506103b9565b005b6100f2600480360360208110156100dc57600080fd5b81019080803590602001909291905050506104ce565b6040518084815260200180602001838152602001828103825284818151815260200191508051906020019080838360005b8381101561013e578082015181840152602081019050610123565b50505050905090810190601f16801561016b5780820380516001836020036101000a031916815260200191505b5094505050505060405180910390f35b6102346004803603602081101561019157600080fd5b81019080803590602001906401000000008111156101ae57600080fd5b8201836020820111156101c057600080fd5b803590602001918460018302840111640100000000831117156101e257600080fd5b91908080601f016020809104026020016040519081016040528093929190818152602001838380828437600081840152601f19601f820116905080830192505050505050509192919290505050610590565b005b61023e610672565b6040518080602001828103825283818151815260200191508051906020019080838360005b8381101561027e578082015181840152602081019050610263565b50505050905090810190601f1680156102ab5780820380516001836020036101000a031916815260200191505b509250505060405180910390f35b6102c1610710565b6040518082815260200191505060405180910390f35b6102df610716565b6040518082815260200191505060405180910390f35b6102fd61071c565b6040518082815260200191505060405180910390f35b61031b610722565b604051808273ffffffffffffffffffffffffffffffffffffffff1673ffffffffffffffffffffffffffffffffffffffff16815260200191505060405180910390f35b61039f6004803603602081101561037357600080fd5b81019080803573ffffffffffffffffffffffffffffffffffffffff169060200190929190505050610748565b604051808215151515815260200191505060405180910390f35b600254600354146103c957600080fd5b600460003373ffffffffffffffffffffffffffffffffffffffff1673ffffffffffffffffffffffffffffffffffffffff16815260200190815260200160002060009054906101000a900460ff161561042057600080fd5b60008110158015610432575060035481105b61043b57600080fd5b60016000828152602001908152602001600020600201600081548092919060010191905055506001600460003373ffffffffffffffffffffffffffffffffffffffff1673ffffffffffffffffffffffffffffffffffffffff16815260200190815260200160002060006101000a81548160ff02191690831515021790555060056000815480929190600101919050555050565b6001602052806000526040600020600091509050806000015490806001018054600181600116156101000203166002900480601f0160208091040260200160405190810160405280929190818152602001828054600181600116156101000203166002900480156105805780601f1061055557610100808354040283529160200191610580565b820191906000526020600020905b81548152906001019060200180831161056357829003601f168201915b5050505050908060020154905083565b600254600354106105a057600080fd5b600660009054906101000a900473ffffffffffffffffffffffffffffffffffffffff1673ffffffffffffffffffffffffffffffffffffffff163273ffffffffffffffffffffffffffffffffffffffff16146105fa57600080fd5b6040518060600160405280600354815260200182815260200160008152506001600060036000815480929190600101919050558152602001908152602001600020600082015181600001556020820151816001019080519060200190610661929190610768565b506040820151816002015590505050565b60008054600181600116156101000203166002900480601f0160208091040260200160405190810160405280929190818152602001828054600181600116156101000203166002900480156107085780601f106106dd57610100808354040283529160200191610708565b820191906000526020600020905b8154815290600101906020018083116106eb57829003601f168201915b505050505081565b60025481565b60055481565b60035481565b600660009054906101000a900473ffffffffffffffffffffffffffffffffffffffff1681565b60046020528060005260406000206000915054906101000a900460ff1681565b828054600181600116156101000203166002900490600052602060002090601f016020900481019282601f106107a957805160ff19168380011785556107d7565b828001600101855582156107d7579182015b828111156107d65782518255916020019190600101906107bb565b5b5090506107e491906107e8565b5090565b61080a91905b808211156108065760008160009055506001016107ee565b5090565b9056fea265627a7a72315820542ffd1e46a7ae528da8046fae878652a0e306df50212329b0796be5973bdcbb64736f6c63430005100032",
  "source": "// SPDX-License-Identifier: MIT\npragma solidity >=0.4.22 <0.9.0;\n\n// pragma experimental ABIEncoderV2;\n\ncontract Election {\n    struct Candidate {\n        uint256 id;\n        string name;\n        uint256 voteCount;\n    }\n\n    string public title;\n    mapping(uint256 => Candidate) public candidates;\n    uint256 public numCandidates;\n    uint256 public actualCandidates;\n    mapping(address => bool) public voters;\n    uint256 public totalVoters;\n    address public owner;\n\n    constructor(string memory _title, uint256 _numCandidates) public {\n        title = _title;\n        numCandidates = _numCandidates;\n        actualCandidates = 0;\n        owner = tx.origin;\n    }\n\n    function addCandidate(string memory _name) public {\n        require(actualCandidates < numCandidates);\n        require(tx.origin == owner);\n        candidates[actualCandidates++] = Candidate(actualCandidates, _name, 0);\n    }\n\n    function vote(uint256 _candidateId) public {\n        // require that all candidates are specified\n        require(actualCandidates == numCandidates);\n\n        // require that voter hasn't voted yet\n        require(!voters[msg.sender]);\n\n        // require a valid candidate\n        require(_candidateId >= 0 && _candidateId < actualCandidates);\n\n        // update candidate vote Count\n        candidates[_candidateId].voteCount++;\n\n        // record that voter has voted\n        voters[msg.sender] = true;\n\n        // increment number of total voters\n        totalVoters++;\n    }\n}\n",
  "sourcePath": "/Users/gulshan/Desktop/UIB/TFG/contracts/Election.sol",
  "compiler": {
    "name": "solc",
    "version": "0.5.16+commit.9c3226ce.Emscripten.clang"
  },
  "schemaVersion": "3.4.4",
  "updatedAt": "2022-04-14T19:57:15.937Z",
  "devdoc": {
    "methods": {}
  },
  "userdoc": {
    "methods": {}
  }
}